:100000000C9446000C9465000C9465000C946500FB
:100010000C9465000C9465000C9465000C946500CC
:100020000C9465000C9465000C9465000C946500BC
:100030000C9418120C9465000C9465000C946500E7
:100040000C9465000C9465000C9465000C9465009C
:100050000C9465000C9465000C9465000C9465008C
:100060000C9465000C9465000C9465000C9465007C
:100070000C9465000C9465000C9465000C9465006C
:100080000C9465000C9465000C94650011241FBE4F
:10009000CFEFD0E1DEBFCDBF11E0A0E0B1E0E2E7FD
:1000A000FCE500E00BBF02C007900D92A43BB10736
:1000B000D9F71CE0A4EBB1E001C01D92A033B10759
:1000C000E1F70E94402B0C94372E0C940000EF9225
:1000D000FF920F931F937B018C0120E030E040E002
:1000E0005FE40E94670388238CF0C801B70120E019
:1000F00030E040E05FE40E94DF010E94C7039B0103
:10010000AC01205030404040504806C0C801B70103
:100110000E94C7039B01AC01B901CA011F910F9155
:10012000FF90EF900895A0E0B0E0E9E9F0E00C94D2
:10013000B22DDC012B01FA019C91923008F439C1F7
:10014000EB018881823008F433C1943069F4843043
:1001500009F02FC111969C9111978981981709F484
:1001600028C1A3EAB1E025C1843009F421C182305D
:10017000A9F4923009F01DC19A01AD0188E0EA01AD
:100180000990AE01E90109929E018150C1F7E20197
:10019000898111969C918923818308C1923009F449
:1001A00007C112962D903C901397EB018A819B8199
:1001B0001496AD90BD90CD90DC901797EC80FD80AB
:1001C0000E811F819101281B390BB90137FF04C033
:1001D00066277727621B730B603271050CF061C0D4
:1001E000121613066CF537014801062E04C09694CA
:1001F0008794779467940A94D2F721E030E040E046
:1002000050E004C0220F331F441F551F6A95D2F7D8
:1002100021503040404050402E213F214023512367
:10022000211531054105510521F021E030E040E084
:1002300050E079018A01E628F728082919293CC0ED
:10024000232BD1F1260E371E35014601062E04C0A0
:1002500096948794779467940A94D2F721E030E0DB
:1002600040E050E004C0220F331F441F551F6A9521
:10027000D2F721503040404050402A213B214C21B0
:100280005D21211531054105510521F021E030E0C6
:1002900040E050E059016A01A628B728C828D928AB
:1002A0000BC0821593052CF01C01AA24BB24650108
:1002B00003C0EE24FF24870111969C91D201119670
:1002C0008C91981709F445C0992339F0A80197013A
:1002D0002A193B094C095D0906C0A60195012E1992
:1002E0003F09400B510B57FD08C011823382228217
:1002F00024833583468357831DC081E08183338205
:10030000228288279927DC01821B930BA40BB50B53
:1003100084839583A683B7830DC0220F331F441FA8
:10032000551F2483358346835783828193810197A8
:10033000938382832481358146815781DA01C90103
:100340000197A109B1098F5F9F4FAF4FBF4328F3BA
:100350000BC0918333822282EA0CFB1C0C1D1D1DF5
:10036000E482F5820683178383E0808324813581CC
:100370004681578157FF1AC0C901AA2797FDA0954A
:10038000BA2F81709070A070B070569547953795D0
:100390002795822B932BA42BB52B84839583A6833F
:1003A000B78382819381019693838283DF0101C0A9
:1003B000D201CD01CDB7DEB7E2E10C94CE2DA0E2A3
:1003C000B0E0E5EEF1E00C94BE2D69837A838B8377
:1003D0009C832D833E834F835887E9E0EE2EF12CDA
:1003E000EC0EFD1ECE010196B7010E94F0048E01B5
:1003F0000F5E1F4FCE010596B8010E94F0048A8956
:1004000091E089278A8BC701B801AE01475E5F4F33
:100410000E9493000E941B04A096E6E00C94DA2D43
:10042000A0E2B0E0E6E1F2E00C94BE2D69837A83AD
:100430008B839C832D833E834F835887F9E0EF2E77
:10044000F12CEC0EFD1ECE010196B7010E94F004C6
:100450008E010F5E1F4FCE010596B8010E94F00479
:10046000C701B801AE01475E5F4F0E9493000E9432
:100470001B04A096E6E00C94DA2DA0E2B0E0E3E4E1
:10048000F2E00C94B22D69837A838B839C832D8355
:100490003E834F835887CE010196BE01675F7F4F31
:1004A0000E94F004CE010596BE016F5E7F4F0E9450
:1004B000F0049985923088F089898230C8F09430B0
:1004C00019F4823051F404C0843029F4923081F45C
:1004D00083EA91E0C6C0923049F420E09A858A8987
:1004E000981321E02A87CE010996BBC0823049F4D7
:1004F00020E09A858A89981321E02A8BCE014196C3
:10050000B0C02D843E844F8458886D887E888F8843
:10051000988CEE24FF248701AA24BB24650140E0C7
:1005200050E060E070E0E0E0F0E0C10181709070C8
:10053000892BE9F0E60CF71C081D191D9A01AB0187
:100540002A0D3B1D4C1D5D1D80E090E0A0E0B0E059
:10055000E614F7040805190520F481E090E0A0E016
:10056000B0E0BA01A901480F591F6A1F7B1FAA0CEE
:10057000BB1CCC1CDD1C97FE08C081E090E0A0E015
:10058000B0E0A82AB92ACA2ADB2A3196E032F1055E
:1005900049F0660C771C881C991C56944794379434
:1005A0002794C3CFFA85EA892B893C898B859C8562
:1005B000280F391F2E5F3F4F17C0CA0181709070FE
:1005C000892B61F016950795F794E79480E090E009
:1005D000A0E0B0E8E82AF92A0A2B1B2B769567954C
:1005E000579547952F5F3F4F77FDE7CF0CC0440FDE
:1005F000551F661F771F17FD4160EE0CFF1C001F83
:10060000111F21503040403090E0590790E06907B9
:1006100090E4790760F32B8F3C8FDB01CA018F7761
:100620009070A070B07080349105A105B10561F49F
:1006300047FD0AC0E114F1040105110529F0405CF1
:100640005F4F6F4F7F4F40781A8EFE1711F081E099
:100650008A8F4D8F5E8F6F8F78A383E0898FCE0155
:1006600049960E941B04A096E2E10C94CE2DA8E1CD
:10067000B0E0EDE3F3E00C94BE2D69837A838B83C5
:100680009C832D833E834F83588789E0E82EF12C8D
:10069000EC0EFD1ECE010196B7010E94F0048E0102
:1006A0000F5E1F4FCE010596B8010E94F0048985A8
:1006B000823040F08989823028F0C701B8010E9459
:1006C000680501C08FEF6896E6E00C94DA2DA8E18A
:1006D000B0E0EDE6F3E00C94BE2D69837A838B8362
:1006E0009C832D833E834F83588789E0E82EF12C2D
:1006F000EC0EFD1ECE010196B7010E94F0048E01A2
:100700000F5E1F4FCE010596B8010E94F004898547
:10071000823040F08989823028F0C701B8010E94F8
:10072000680501C08FEF6896E6E00C94DA2DA8E129
:10073000B0E0EDE9F3E00C94BE2D69837A838B83FE
:100740009C832D833E834F83588789E0E82EF12CCC
:10075000EC0EFD1ECE010196B7010E94F0048E0141
:100760000F5E1F4FCE010596B8010E94F0048985E7
:10077000823040F08989823028F0C701B8010E9498
:10078000680501C081E06896E6E00C94DA2DACE0E3
:10079000B0E0EDECF3E00C94C22D69837A838B8397
:1007A0009C83CE010196BE016B5F7F4F0E94F004D7
:1007B0008D81823061F1823050F1843021F48E815C
:1007C000882351F12EC02F81388537FD20C06E81DE
:1007D0002F3131051CF06623F9F023C08EE190E043
:1007E000821B930B29853A854B855C8504C0569501
:1007F0004795379527958A95D2F76623B1F050959E
:100800004095309521953F4F4F4F5F4F0EC020E0F0
:1008100030E040E050E009C02FEF3FEF4FEF5FE7DF
:1008200004C020E030E040E050E8B901CA012C9655
:10083000E2E00C94DE2DDF92EF92FF920F931F9374
:10084000FC01E480F58006811781D18080818230AF
:1008500048F480E090E0A0E1B0E0E82AF92A0A2B11
:100860001B2BA5C0843009F49FC0823021F4EE24F4
:10087000FF24870105C0E114F1040105110519F4F5
:10088000E0E0F0E096C0628173819FEF6238790703
:100890000CF05BC022E83FEF261B370B2A313105F5
:1008A0002CF020E030E040E050E02AC0B801A70181
:1008B000022E04C076956795579547950A94D2F70E
:1008C00081E090E0A0E0B0E004C0880F991FAA1F6B
:1008D000BB1F2A95D2F70197A109B1098E219F214B
:1008E000A023B1230097A105B10521F081E090E09C
:1008F000A0E0B0E09A01AB01282B392B4A2B5B2BEF
:10090000DA01C9018F779070A070B07080349105C2
:10091000A105B10539F427FF09C0205C3F4F4F4FB7
:100920005F4F04C0215C3F4F4F4F5F4FE0E0F0E06E
:100930002030A0E03A07A0E04A07A0E45A0710F0F0
:10094000E1E0F0E079018A0127C06038710564F5C3
:10095000FB01E158FF4FD801C7018F779070A0705D
:10096000B07080349105A105B10539F4E7FE0DC0E2
:1009700080E490E0A0E0B0E004C08FE390E0A0E06D
:10098000B0E0E80EF91E0A1F1B1F17FF05C01695E1
:100990000795F794E794319687E016950795F794B5
:1009A000E7948A95D1F705C0EE24FF248701EFEF85
:1009B000F0E06E2F679566276795902F9F77D79405
:1009C000DD24D7948E2F8695492F462B582F5D29ED
:1009D000B701CA011F910F91FF90EF90DF9008952A
:1009E000FC01DB01408151812281622F6F7770E031
:1009F000221F2227221F9381892F880F822B282FC5
:100A000030E0991F9927991F11969C9311972115F2
:100A10003105A9F5411551056105710511F482E013
:100A200037C082E89FEF13969C938E9312979A019A
:100A3000AB0167E0220F331F441F551F6A95D1F7A2
:100A400083E08C930DC0220F331F441F551F129655
:100A50008D919C911397019713969C938E93129767
:100A6000203080E0380780E0480780E4580758F3DA
:100A700014962D933D934D935C93179708952F3FB4
:100A8000310579F4411551056105710519F484E0CA
:100A90008C93089564FF03C081E08C9312C01C9274
:100AA00010C02F57304013963C932E93129783E03B
:100AB0008C9387E0440F551F661F771F8A95D1F7E7
:100AC000706414964D935D936D937C93179708957E
:100AD0001F93DC01FB019C91923008F447C0808198
:100AE000823008F443C0943051F411961C91843044
:100AF00099F58181682F70E0611B71093FC08430D6
:100B000021F0923031F48230B9F18181882389F16A
:100B10002DC011961C9111978230F1F08181181728
:100B2000D9F412962D913C9113978281938182176B
:100B3000930794F028173907BCF014968D919D9176
:100B40000D90BC91A02D24813581468157812817B5
:100B500039074A075B0718F4112341F00AC08217CE
:100B60009307A407B50740F4112319F061E070E082
:100B700005C06FEF7FEF02C060E070E0CB011F9116
:100B80000895AF92BF92CF92DF92EF92FF920F93B0
:100B9000DF93CF930F92CDB7DEB789838AE062E00F
:100BA00040E00E94A1129093B7018093B60185E4C2
:100BB00096E020E031E0E6EBF1E0B90145E550E0F8
:100BC0009F010981EE24FF24CC24DD24AA24BB2428
:100BD0000E94C71988E096E028E031E0E6EBF1E0FA
:100BE000B90145E550E09F010981EE24FF24CC24A2
:100BF000DD24AA24BB240E94C7190F90CF91DF9156
:100C00000F91FF90EF90DF90CF90BF90AF9008953D
:100C1000DF93CF9300D000D000D0CDB7DEB79E8356
:100C20008D831C821B821A82198227C0ED81FE816E
:100C3000808191819E012D5F3F4FB90140E050E0DE
:100C400020E00E946C13813019F081E08A8312C089
:100C50008A81882351F40FB6F8940F928091B501E0
:100C60008F5F8093B5010F900FBE8B819C810196A1
:100C70009C838B8389818F5F898389818330B4F2E0
:100C800088EC90E00E94811BCFCFDF93CF93CDB74C
:100C9000DEB727970FB6F894DEBF0FBECDBF9F8398
:100CA0008E831B821A8219822FC0EE81FF81808180
:100CB00091819E012C5F3F4FB90140E050E020E060
:100CC0000E947A14813001F52C813D818A819B81BB
:100CD0002817390739F081E089838C819D819B83B6
:100CE0008A830DC08981882351F40FB6F8940F923E
:100CF0008091B4018F5F8093B4010F900FBE8A8101
:100D00009B8101969B838A83EE81FF818081918103
:100D10000E94EB15882349F684EB90E00E94811B2A
:100D2000F3CFDF93CF930F92CDB7DEB78091B401AD
:100D3000882321F08091B501882311F4198202C023
:100D400081E089831092B4011092B50189810F90DE
:100D5000CF91DF910895DF93CF93CDB7DEB727977B
:100D60000FB6F894DEBF0FBECDBF9D838C836E831C
:100D70004F838AE190E00E94C30C9A838983898122
:100D80009A81009709F46FC08091B8019091B901E0
:100D9000009741F489819A819093B9018093B801B9
:100DA0000E9412098E81823010F081E08E83E981E9
:100DB000FA81118E108EE981FA818E81868BE9810C
:100DC000FA818F81878BE981FA818C819D81918362
:100DD000808389819A8102960E943B0E89819A8143
:100DE0000C960E943B0EE981FA8189819A81918754
:100DF0008087E981FA8189819A81938B828B8E81A8
:100E0000282F30E082E090E0821B930BE981FA8189
:100E100095878487E981FA8196898091BA0189173B
:100E200028F4E981FA8186898093BA01E981FA81FF
:100E30008689282F30E0C901880F991F880F991FD4
:100E4000880F991F820F931FAC014F535E4F89810A
:100E50009A819C012E5F3F4FCA01B9010E944B0E3F
:100E600081E08B8302C08FEF8B838B8127960FB637
:100E7000F894DEBF0FBECDBFCF91DF910895DF9311
:100E8000CF9300D000D000D0CDB7DEB79C838B834A
:100E90007E836D832091BB013091BC018B819C814D
:100EA000820F931F9A8389838091B8019091B90131
:100EB00002960E94FB0EE091B801F091B901898180
:100EC0009A81938382832091BB013091BC018981F7
:100ED0009A818217930770F48091E7019091E8015D
:100EE0002091B8013091B9012E5F3F4FB9010E94A6
:100EF0008F0E0DC08091E5019091E6012091B8011F
:100F00003091B9012E5F3F4FB9010E948F0E8D8144
:100F10009E81009761F08091B8019091B9019C0188
:100F2000245F3F4F8D819E81B9010E948F0E2696CE
:100F30000FB6F894DEBF0FBECDBFCF91DF910895FD
:100F4000DF93CF9300D0CDB7DEB73AC0F894E091ED
:100F5000EE01F091EF01868197819A8389838981DF
:100F60009A810C960E94FB0E789489819A81029650
:100F70000E94FB0EE981FA8196898091BA01891756
:100F800028F4E981FA8186898093BA01E981FA819E
:100F90008689282F30E0C901880F991F880F991F73
:100FA000880F991F820F931FAC014F535E4F8981A9
:100FB0009A819C012E5F3F4FCA01B9010E944B0EDE
:100FC0008091E901882309F0C1CF0F900F90CF9154
:100FD000DF910895DF93CF9300D000D0CDB7DEB777
:100FE0000E948F1C2091BD013091BE01821B930B8A
:100FF0009093C0018093BF0185C08091BB01909107
:10100000BC0101969093BC018093BB018091BF010C
:101010009091C00101979093C0018093BF0180918E
:10102000BB019091BC01009709F064C08091E5017B
:101030009091E6019A8389838091E7019091E8017C
:101040009093E6018093E50189819A819093E8016C
:101050008093E7014FC0E091E501F091E601058042
:10106000F681E02D868197819C838B83EB81FC81C7
:10107000228133818091BB019091BC01821793073B
:1010800008F440C0F8948B819C8102960E94FB0E6C
:10109000EB81FC8184899589009729F08B819C8163
:1010A0000C960E94FB0E7894EB81FC8196898091CE
:1010B000BA01891728F4EB81FC8186898093BA01F3
:1010C000EB81FC818689282F30E0C901880F991FA8
:1010D000880F991F880F991F820F931FAC014F53E0
:1010E0005E4F8B819C819C012E5F3F4FCA01B901ED
:1010F0000E944B0EE091E501F091E601808188238A
:1011000009F0A9CF8091BF019091C001009709F02B
:1011100074CF8091BB019091BC019093BE018093EC
:10112000BD010F900F900F900F90CF91DF91089518
:10113000DF93CF9300D0CDB7DEB70E94A0070E9407
:10114000EA070AC08091BA01882309F466C0809139
:10115000BA0181508093BA018091BA01282F30E002
:10116000C901880F991F880F991F880F991F820F37
:10117000931FFC01EF53FE4F8081882319F3809168
:10118000BA01282F30E0C901880F991F880F991FD5
:10119000880F991F820F931F8F539E4F9A838983C5
:1011A000E981FA810180F281E02D82819381E981D8
:1011B000FA8192838183E981FA8121813281898157
:1011C0009A8103962817390759F4E981FA81018039
:1011D000F281E02D82819381E981FA81928381837A
:1011E000E981FA810180F281E02D868197819093D7
:1011F000B9018093B801E091B801F091B901408143
:1012000051818091B8019091B901E091B801F091BC
:10121000B9012789622FFA0109950F900F90CF919C
:10122000DF910895DF93CF930F92CDB7DEB7198288
:1012300013C08981282F30E0C901880F991F880FBA
:10124000991F880F991F820F931F8F539E4F0E94E3
:10125000110E89818F5F89838981823050F383EDFC
:1012600091E00E94110E8CED91E00E94110E89EE2A
:1012700091E00E94110E83ED91E09093E60180933E
:10128000E5018CED91E09093E8018093E7010F90E8
:10129000CF91DF910895DF93CF9300D000D00F92CC
:1012A000CDB7DEB79D838C83EC81FD810580F6810F
:1012B000E02D868197819B838A838A819B810C960E
:1012C0000E94FB0E8A819B819C01245F3F4F89EE27
:1012D00091E0B9010E944B0EEA81FB819689E09171
:1012E000B801F091B9018689981718F081E08983D7
:1012F00001C0198289810F900F900F900F900F906D
:10130000CF91DF910895DF93CF9300D0CDB7DEB7B3
:101310008BE090E00E94C30C9A83898389819A8133
:10132000009749F0E981FA811182108289819A81BE
:1013300002960E94110E89819A810F900F90CF9191
:10134000DF910895DF93CF93CDB7DEB760970FB6E7
:10135000F894DEBF0FBECDBF9A8789877C876B87E5
:101360005E874D87388B2F8789859A859C838B83F1
:1013700019820E94F91BEB81FC8180819181988701
:101380008F8389859A852B853C85B9010E94740BD2
:101390002F8138858B859C85282B392B8D859E85C3
:1013A000282339238D859E8528173907C9F42F8175
:1013B00038858B859C85822B932B9E838D83EB8137
:1013C000FC81208131818D859E8580959095822339
:1013D0009323EB81FC8191838083188A1F861CC034
:1013E0008F859889009791F08B819C81BC016E5FFD
:1013F0007F4F8D859E859C0135604F855889CB0137
:10140000B9010E94491E1E821D8206C0EB81FC812B
:10141000808191819E838D830E94051C8A838F85A4
:101420009889009709F43AC08A81882311F40E94B0
:1014300006110E94C5229E838D838D819E818070BE
:101440009270009731F50FB6F8940F92EB81FC8102
:10145000808191819E838D832D813E818D859E85A6
:10146000282339238D859E852817390771F4EB8150
:10147000FC81208131818D859E8580959095822388
:101480009323EB81FC81918380830F900FBE81E0D9
:1014900089838D819E8190709E838D838D819E81B5
:1014A00060960FB6F894DEBF0FBECDBFCF91DF912F
:1014B00008950F931F93DF93CF93CDB7DEB7639754
:1014C0000FB6F894DEBF0FBECDBF9D878C877F8798
:1014D0006E87488B298B1B8B0A8B8C859D859B8700
:1014E0008A871F821E821B820E94F91BEA85FB8568
:1014F000808191819A83898389819A812E853F8514
:10150000B90149890E94910C8D838D818823C1F096
:1015100089819A81998788871B8A1A8A8889882372
:10152000D9F1EA85FB85208131818E859F85809563
:10153000909582239323EA85FB85918380832CC039
:101540008A899B89009729F489819A81998788875C
:1015500023C08889882329F08E819F8191609F8391
:101560008E838989882329F08E819F8194609F834F
:101570008E838A859B85BC016E5F7F4F2E853F855C
:101580008E819F81282B392B4A895B89CB01B90138
:101590000E94491E198618860E94051C8C838A8920
:1015A0009B89009709F43BC08C81882311F40E9429
:1015B00006110E94C5229987888788859985807041
:1015C0009270009739F50FB6F8940F92EA85FB8573
:1015D0008081918199878887888599852E853F8527
:1015E000B90149890E94910C882389F08889882350
:1015F00071F0EA85FB85208131818E859F858095FC
:10160000909582239323EA85FB85918380830F90B5
:101610000FBE1B82888599859070998788878885F9
:10162000998563960FB6F894DEBF0FBECDBFCF91FC
:10163000DF911F910F910895DF93CF93CDB7DEB760
:1016400028970FB6F894DEBF0FBECDBF9E838D8363
:1016500078876F838D819E819C838B830FB6F894EE
:101660000F92EB81FC81808191819A838983EB8148
:10167000FC81208131818F8198858095909582238E
:101680009323EB81FC81918380830F900FBE89812E
:101690009A8128960FB6F894DEBF0FBECDBFCF91CA
:1016A000DF910895DF93CF93CDB7DEB727970FB6BD
:1016B000F894DEBF0FBECDBF9F838E838E819F8146
:1016C0009C838B831D82EB81FC81808191819A8335
:1016D000898389819A8127960FB6F894DEBF0FBE61
:1016E000CDBFCF91DF910895DF93CF93CDB7DEB714
:1016F00065970FB6F894DEBF0FBECDBF9B8B8A8B6C
:101700007D8B6C8B198618868A899B899B838A833B
:1017100019828A819B8102969B878A878A859B850D
:1017200003969D878C870E94F91BEA85FB8585813E
:101730009681998B888BEA81FB81208131818C890C
:101740009D89822B932BEA81FB819183808359C0F1
:10175000E889F989828193819F878E87E889F98951
:10176000808191819F838E8319828E819F81807079
:101770009D838C838E819F8190709F838E838C81CB
:101780009D8180709470009769F4EA81FB812081CB
:1017900031818E819F8182239323009791F081E094
:1017A00089830FC0EA81FB81208131818E819F81F5
:1017B000282339238E819F812817390711F481E06E
:1017C000898389818823C9F08C819D818070917083
:1017D000009741F0888599852E813F81822B932B3C
:1017E00099878887EA81FB81808191819C013260A1
:1017F00088899989B9010E94F71E8E859F85998BEA
:10180000888B288939898C859D852817390709F0A7
:101810009FCFEA81FB8120813181888599858095E0
:10182000909582239323EA81FB81918380830E9498
:10183000051CEA81FB818081918165960FB6F89441
:10184000DEBF0FBECDBFCF91DF910895DF93CF9361
:1018500000D000D000D0CDB7DEB79E838D838D81C0
:101860009E819C838B838B819C8102969A83898342
:101870000E94F91B08C0E981FA818581968160E0A8
:1018800072E00E94F71EE981FA818081882399F72E
:101890008B819C810E94190D0E94051C26960FB613
:1018A000F894DEBF0FBECDBFCF91DF910895DF93D7
:1018B000CF9300D000D000D0CDB7DEB79A83898314
:1018C0004B835C836D837E832B813C8189819A81EC
:1018D000B9010E94740B26960FB6F894DEBF0FBEB6
:1018E000CDBFCF91DF910895DF93CF9300D000D08B
:1018F00000D0CDB7DEB79A8389834B835C836D8339
:101900007E832B813C8189819A81B9010E941C0BC5
:1019100026960FB6F894DEBF0FBECDBFCF91DF91F4
:101920000895DF93CF9300D000D000D0CDB7DEB7BD
:101930009B838A837D836C834E8319828E81882367
:1019400059F48A819B812C813D81822393230097C6
:1019500081F081E089830DC02A813B818C819D814A
:10196000282339238C819D812817390711F481E0C0
:101970008983898126960FB6F894DEBF0FBECDBF4E
:10198000CF91DF910895DF93CF9300D000D0CDB7F2
:10199000DEB79C838B831A8219820E94F91B809187
:1019A000F4019091F501009731F487EF91E0909365
:1019B000F5018093F4018091F2019091F3012B8164
:1019C0003C81820F931F29E0833C920738F52091D8
:1019D000F2013091F3018B819C81280F391F809196
:1019E000F2019091F30182179307C0F42091F40162
:1019F0003091F5018091F2019091F301820F931FD4
:101A00009A8389832091F2013091F3018B819C812B
:101A1000820F931F9093F3018093F2010E94051CA3
:101A200089819A810F900F900F900F90CF91DF9145
:101A30000895DF93CF9300D0CDB7DEB79A83898323
:101A40000F900F90CF91DF910895DF93CF93CDB793
:101A5000DEB71092F3011092F201CF91DF91089559
:101A6000DF93CF93CDB7DEB72091F2013091F30130
:101A700083EC99E0821B930BCF91DF910895AF9295
:101A8000BF92CF92DF92EF92FF920F93DF93CF93AB
:101A900000D00F92CDB7DEB78B831A8219821BC09C
:101AA00089819A81FC01E654F44F8DE79DE020E1A5
:101AB00031E0B90145E550E09F010B81EE24FF24A0
:101AC000CC24DD24AA24BB240E94C71989819A81D1
:101AD00001969A83898389819A811816190604F7D9
:101AE0000F900F900F90CF91DF910F91FF90EF909B
:101AF000DF90CF90BF90AF900895DF93CF93CDB795
:101B0000DEB72A970FB6F894DEBF0FBECDBF9A8717
:101B100089871C821B8289859A859A8389838BE7B2
:101B200090E0A0E0B0E08D839E83AF83B8878D8185
:101B30009E81AF81B885895B9B46AC4FBF4F8D833B
:101B40009E83AF83B8878D819E81AF81B8852DEF4D
:101B50003FEF4FEF5FEFBC01CD010E94562DDC013E
:101B6000CB018D839E83AF83B8878D819E81AF81AA
:101B7000B88527E030E040E050E0BC01CD010E9494
:101B8000972DDA01C9018D839E83AF83B8878D813C
:101B90009E81AF81B8858B3127E792072EEFA20790
:101BA0002FEFB20721F081E090E09C838B838B8143
:101BB0009C81009709F0B3CF0FB6F8940F92E9819A
:101BC000FA8181E080830F900FBEA9CFDF93CF937E
:101BD00000D00F92CDB7DEB781E08B831A821982D5
:101BE00014C089819A81FC01E654F44F80818823D6
:101BF00009F41B8289819A81FC01E654F44F10821A
:101C000089819A8101969A83898389819A8118169C
:101C100019063CF78B810F900F900F90CF91DF91B9
:101C20000895DF93CF9300D0CDB7DEB79A83898331
:101C300089819A810396E981FA8192838183E9817E
:101C4000FA818FEF9FEF9483838389819A81039632
:101C5000E981FA819683858389819A810396E98156
:101C6000FA8190878783E981FA8110820F900F9023
:101C7000CF91DF910895DF93CF9300D0CDB7DEB73A
:101C80009A838983E981FA81118610860F900F90DB
:101C9000CF91DF910895DF93CF9300D000D000D093
:101CA000CDB7DEB79C838B837E836D83EB81FC8114
:101CB000818192819A838983ED81FE8189819A81D4
:101CC00093838283E981FA8184819581ED81FE810C
:101CD00095838483E981FA810480F581E02D8D81EB
:101CE0009E8193838283E981FA818D819E81958390
:101CF0008483ED81FE818B819C8191878087EB813C
:101D0000FC8180818F5FEB81FC81808326960FB6FA
:101D1000F894DEBF0FBECDBFCF91DF910895DF9362
:101D2000CF93CDB7DEB728970FB6F894DEBF0FBEBE
:101D3000CDBF9E838D8378876F83EF81F885808107
:101D400091819A83898389819A812FEF8F3F9207AE
:101D500039F4ED81FE81878190859C838B8318C047
:101D60008D819E8103969C838B8306C0EB81FC81D1
:101D7000828193819C838B83EB81FC810280F38140
:101D8000E02D2081318189819A818217930770F734
:101D9000EB81FC8182819381EF81F885938382833B
:101DA000EF81F8850280F381E02D8F8198859583FE
:101DB0008483EF81F8858B819C8195838483EB817B
:101DC000FC818F81988593838283EF81F8858D8153
:101DD0009E8191878087ED81FE8180818F5FED817B
:101DE000FE81808328960FB6F894DEBF0FBECDBF6C
:101DF000CF91DF910895DF93CF9300D000D0CDB77E
:101E0000DEB79C838B83EB81FC81808591859A83EF
:101E10008983EB81FC81A281B381EB81FC81848188
:101E2000958115969C938E931497EB81FC81A481E8
:101E3000B581EB81FC818281938113969C938E9373
:101E40001297E981FA81218132818B819C81281747
:101E5000390741F4EB81FC8184819581E981FA8124
:101E600092838183EB81FC8111861086E981FA815E
:101E700080818150E981FA818083E981FA818081C2
:101E80000F900F900F900F90CF91DF910895DF93F7
:101E9000CF93CDB7DEB728970FB6F894DEBF0FBE4D
:101EA000CDBF9C838B837E836D8358874F83EB816B
:101EB000FC8181E180838B819C8101979C838B8352
:101EC000EB81FC8182E280838B819C8101979C83E2
:101ED0008B83EB81FC8183E380838B819C810197E1
:101EE0009C838B838D819E819A8389838981EB81F9
:101EF000FC8180838B819C8101979C838B8389816A
:101F00009A81892F99279A8389838981EB81FC8122
:101F100080838B819C8101979C838B83EB81FC81E7
:101F200010828B819C8101979C838B83EB81FC8148
:101F300080E880838B819C8101979C838B83EB81DC
:101F4000FC8110828B819C8101979C838B83EB8128
:101F5000FC8182E080838B819C8101979C838B83B1
:101F6000EB81FC8183E080838B819C8101979C8342
:101F70008B83EB81FC8184E080838B819C81019742
:101F80009C838B83EB81FC8185E080838B819C81AA
:101F900001979C838B83EB81FC8186E080838B811E
:101FA0009C8101979C838B83EB81FC8187E08083FC
:101FB0008B819C8101979C838B83EB81FC8188E0E2
:101FC00080838B819C8101979C838B83EB81FC8137
:101FD00089E080838B819C8101979C838B83EB813B
:101FE000FC8180E180838B819C8101979C838B8322
:101FF000EB81FC8181E180838B819C8101979C83B3
:102000008B83EB81FC8182E180838B819C810197B2
:102010009C838B83EB81FC8183E180838B819C811A
:1020200001979C838B83EB81FC8184E180838B818E
:102030009C8101979C838B83EB81FC8185E180836C
:102040008B819C8101979C838B83EB81FC8186E152
:1020500080838B819C8101979C838B83EB81FC81A6
:1020600087E180838B819C8101979C838B83EB81AB
:10207000FC8188E180838B819C8101979C838B8389
:10208000EB81FC8189E180838B819C8101979C831A
:102090008B83EB81FC8180E280838B819C81019723
:1020A0009C838B83EB81FC8181E280838B819C818B
:1020B00001979C838B83EB81FC8182E280838B81FF
:1020C0009C8101979C838B83EB81FC8183E28083DD
:1020D0008B819C8101979C838B838F8198859A83C8
:1020E00089838981EB81FC8180838B819C8101972D
:1020F0009C838B8389819A81892F99279A838983ED
:102100008981EB81FC8180838B819C8101979C83F9
:102110008B83EB81FC8186E280838B819C8101979C
:102120009C838B83EB81FC8187E280838B819C8104
:1021300001979C838B83EB81FC8188E280838B8178
:102140009C8101979C838B83EB81FC8189E2808356
:102150008B819C8101979C838B83EB81FC8180E345
:1021600080838B819C8101979C838B83EB81FC8195
:1021700081E380838B819C8101979C838B838B81FE
:102180009C8128960FB6F894DEBF0FBECDBFCF91CD
:10219000DF910895DF93CF93CDB7DEB70E94BC11D6
:1021A000A091BB0BB091BC0BCD91CDBFDD91DEBF3B
:1021B000FF91EF91DF91CF91BF91AF919F918F915F
:1021C0007F916F915F914F913F912F911F910F914F
:1021D000FF90EF90DF90CF90BF90AF909F908F9047
:1021E0007F906F905F904F903F902F901F900F9037
:1021F0000FBE0F90089581E0CF91DF910895DF9396
:10220000CF93CDB7DEB7CF91DF9108950F920FB680
:10221000F8940F921F9211242F923F924F925F9247
:102220006F927F928F929F92AF92BF92CF92DF92E6
:10223000EF92FF920F931F932F933F934F935F93D0
:102240006F937F938F939F93AF93BF93CF93DF93BE
:10225000EF93FF93A091BB0BB091BC0B0DB60D9209
:102260000EB60D920E94AB1DA091BB0BB091BC0BA2
:10227000CD91CDBFDD91DEBFFF91EF91DF91CF9189
:10228000BF91AF919F918F917F916F915F914F918E
:102290003F912F911F910F91FF90EF90DF90CF9082
:1022A000BF90AF909F908F907F906F905F904F9076
:1022B0003F902F901F900F900FBE0F9008950F9298
:1022C0000FB6F8940F921F9211242F923F924F92C3
:1022D0005F926F927F928F929F92AF92BF92CF92B6
:1022E000DF92EF92FF920F931F932F933F934F93A1
:1022F0005F936F937F938F939F93AF93BF93CF938E
:10230000DF93EF93FF93A091BB0BB091BC0B0DB685
:102310000D920EB60D920E94C41C882311F00E94EB
:10232000AB1DA091BB0BB091BC0BCD91CDBFDD918E
:10233000DEBFFF91EF91DF91CF91BF91AF919F9160
:102340008F917F916F915F914F913F912F911F914D
:102350000F91FF90EF90DF90CF90BF90AF909F9044
:102360008F907F906F905F904F903F902F901F9035
:102370000F900FBE0F900895DF93CF9300D000D041
:1023800000D0CDB7DEB780E49FE1A0E0B0E08B8362
:102390009C83AD83BE838B819C81AD81BE8168941B
:1023A00015F8B695A795979587951694D1F78B83D1
:1023B0009C83AD83BE838B819C81AD81BE8101975F
:1023C000A109B1098B839C83AD83BE838B818983F3
:1023D0008B819C81AD81BE81892F9A2FAB2FBB272A
:1023E0008B839C83AD83BE838B818A83EBE4F0E097
:1023F0008A818083EAE4F0E0898180838BE08983AD
:10240000EEE4F0E089818083E7E5F0E08081898374
:10241000898180618983E7E5F0E089818083269660
:102420000FB6F894DEBF0FBECDBFCF91DF910895F8
:102430000E945F111895DF93CF9300D000D00F92C8
:10244000CDB7DEB79C838B836D838B819C819A8310
:1024500089830FB6F8940F92E981FA814081518106
:10246000E981FA81838D282F30E0E981FA81848D1A
:10247000882F90E0BC01269FC001279F900D369FBA
:10248000900D1124840F951FE981FA819383828333
:10249000E981FA81128EE981FA8180819181E98155
:1024A000FA8195838483E981FA8140815181E981B0
:1024B000FA81838D882F90E09C0121503040E98182
:1024C000FA81848D882F90E0BC01269FC001279F50
:1024D000900D369F900D1124840F951FE981FA818C
:1024E00097838683E981FA818FEF858FE981FA816D
:1024F0008FEF868F8D81882379F4E981FA81808539
:102500008823A1F089819A8108960E948C1E8130CF
:1025100069F40E9406110AC089819A8108960E9476
:10252000110E89819A8141960E94110E0F900FBE63
:1025300081E00F900F900F900F900F90CF91DF914F
:102540000895DF93CF93CDB7DEB729970FB6F894F0
:10255000DEBF0FBECDBF8F83688749871A8219827D
:102560008F81882309F43FC08FE190E00E94C30C63
:102570009E838D838D819E810097A9F18F81282F65
:1025800030E08885882F90E0AC01249FC001259F12
:10259000900D349F900D112401969C838B838B8129
:1025A0009C810E94C30CED81FE8191838083ED812B
:1025B000FE8180819181009791F0ED81FE818F8174
:1025C000838FED81FE818885848F8D819E8161E07E
:1025D0000E941B128D819E819A83898304C08D8104
:1025E0009E810E94190D89819A8129960FB6F894CF
:1025F000DEBF0FBECDBFCF91DF910895DF93CF93A4
:1026000000D00F92CDB7DEB78B838FE190E00E94B0
:10261000C30C9A83898389819A810097A9F1E98102
:10262000FA8113821282E981FA8111821082E98192
:10263000FA8115821482E981FA8117821682E98172
:10264000FA81128EE981FA8181E0838FE981FA8132
:10265000148EE981FA818FEF858FE981FA818FEFFE
:10266000868F89819A8108960E94110E89819A81AC
:1026700041960E94110E89819A8160E070E040E0ED
:1026800050E020E00E946C1389819A810F900F9096
:102690000F90CF91DF910895DF93CF9300D000D0BA
:1026A000CDB7DEB78B836C838B8160E042E00E9404
:1026B000A1129A83898389819A81009721F0E98107
:1026C000FA818C81828F89819A810F900F900F906F
:1026D0000F90CF91DF910895DF93CF93CDB7DEB701
:1026E0002F970FB6F894DEBF0FBECDBF99878887AE
:1026F0007B876A875D874C872E871C8288859985B2
:102700009A8389830FB6F8940F92E981FA81928DAA
:10271000E981FA81838D981718F08E85823011F542
:1027200089819A812A853B85B9014E850E945E1672
:102730008B83E981FA818189882351F089819A818B
:1027400041960E948C1E813041F40E94061105C002
:102750008B81882311F00E9406110F900FBE81E03B
:102760008F875CC08C859D85009721F40F900FBEEC
:102770001F8654C08C81882331F4CE0105960E94B7
:102780005C1F81E08C830F900FBE0E94F91B0FB677
:10279000F8940F92E981FA81858D8F3F19F4E981D0
:1027A000FA81158EE981FA81868D8F3F19F4E981CE
:1027B000FA81168E0F900FBECE0105969E01245F02
:1027C0003F4FB9010E94751F882309F589819A81BD
:1027D0000E94E7178823A1F089819A8108962C85A9
:1027E0003D85B9010E94141E89819A810E945E175D
:1027F0000E94051C882309F085CF0E94061182CF14
:1028000089819A810E945E170E94051C7BCF898175
:102810009A810E945E170E94051C1F868F852F9645
:102820000FB6F894DEBF0FBECDBFCF91DF910895F4
:10283000DF93CF93CDB7DEB72B970FB6F894DEBFFB
:102840000FBECDBF9E838D8378876F835A8749875C
:102850002B878D819E819A8389831B82E981FA81EE
:10286000928DE981FA81838D981718F08B858230DB
:10287000B1F589819A812F813885B9014B850E94F4
:102880005E16882341F089859A85009721F0E985B5
:10289000FA8581E08083E981FA81868D8F3FA9F4F2
:1028A000E981FA8181898823B9F089819A814196E9
:1028B0000E948C1E882381F089859A85009761F09B
:1028C000E985FA8581E0808307C0E981FA81868DF8
:1028D0008F5FE981FA81868F81E08C8301C01C8241
:1028E0008C812B960FB6F894DEBF0FBECDBFCF9173
:1028F000DF910895DF93CF93CDB7DEB760970FB622
:10290000F894DEBF0FBECDBF9A8789877C876B871F
:102910005E874D872F871D8289859A859A83898353
:102920000FB6F8940F92E981FA81828D882309F419
:102930004BC0E981FA81868197819C838B83898151
:102940009A812B853C85B9010E9417178F858823B2
:1029500011F5E981FA81828D8150E981FA81828FB6
:10296000E981FA8180819181009731F40E94EC2203
:10297000E981FA8193838283E981FA8180858823C2
:10298000F1F089819A8108960E948C1E8130B9F4F9
:102990000E94061114C0E981FA818B819C81978382
:1029A0008683E981FA818189882349F089819A8126
:1029B00041960E948C1E882311F00E9406110F90F0
:1029C0000FBE81E0888B6DC08D859E85009721F4B8
:1029D0000F900FBE188A65C08D81882331F4CE0117
:1029E00006960E945C1F81E08D830F900FBE0E94AF
:1029F000F91B0FB6F8940F92E981FA81858D8F3F0C
:102A000019F4E981FA81158EE981FA81868D8F3F6B
:102A100019F4E981FA81168E0F900FBECE01069649
:102A20009E01235F3F4FB9010E94751F882391F5D6
:102A300089819A810E94B217882329F1E981FA815C
:102A400080819181009759F40FB6F8940F92E98133
:102A5000FA81828193810E94C8210F900FBE8981E3
:102A60009A8141962D853E85B9010E94141E898167
:102A70009A810E945E170E94051C882309F050CF9E
:102A80000E9406114DCF89819A810E945E170E9493
:102A9000051C46CF89819A810E945E170E94051C01
:102AA000188A888960960FB6F894DEBF0FBECDBF36
:102AB000CF91DF910895DF93CF93CDB7DEB72A97FB
:102AC0000FB6F894DEBF0FBECDBF9E838D8378878F
:102AD0006F835A8749878D819E819A8389831B8260
:102AE000E981FA81828D882391F189819A812F81F0
:102AF0003885B9010E941717E981FA81828D8150CA
:102B0000E981FA81828FE981FA81858D8F3FA9F46D
:102B1000E981FA8180858823B9F089819A810896B4
:102B20000E948C1E882381F089859A85009761F028
:102B3000E985FA8581E0808307C0E981FA81858D86
:102B40008F5FE981FA81858F81E08C8301C01C82CF
:102B50008C812A960FB6F894DEBF0FBECDBFCF9101
:102B6000DF910895DF93CF93CDB7DEB72A970FB6E5
:102B7000F894DEBF0FBECDBF98878F837A876987B1
:102B80008F8198859A8389831D82E981FA81828D5C
:102B90008823B1F0E981FA81868197819C838B83B8
:102BA00089819A8129853A85B9010E941717E9819F
:102BB000FA818B819C819783868381E08E8301C01B
:102BC0001E828E812A960FB6F894DEBF0FBECDBF4F
:102BD000CF91DF910895DF93CF9300D00F92CDB7BF
:102BE000DEB79B838A830FB6F8940F92EA81FB814C
:102BF000828D89830F900FBE89810F900F900F9067
:102C0000CF91DF910895DF93CF9300D000D00F9242
:102C1000CDB7DEB79D838C838C819D819A83898318
:102C20000FB6F8940F92E981FA81938DE981FA81C8
:102C3000828D292F281B822F8B830F900FBE8B81B3
:102C40000F900F900F900F900F90CF91DF910895FC
:102C5000DF93CF9300D00F92CDB7DEB79B838A83EB
:102C6000EA81FB81828D898389810F900F900F907B
:102C7000CF91DF910895DF93CF9300D000D0CDB7EF
:102C8000DEB79C838B838B819C819A838983E981C6
:102C9000FA8180819181009731F0E981FA81808108
:102CA00091810E94190D89819A810E94190D0F90BE
:102CB0000F900F900F90CF91DF910895DF93CF93F6
:102CC00000D000D000D0CDB7DEB79B838A837D8350
:102CD0006C834E831982EA81FB81848D882399F469
:102CE000EA81FB8180819181009709F08FC0EA81A0
:102CF000FB81828193810E9453228983EA81FB8137
:102D00001382128283C08E81882399F5EA81FB8128
:102D100064817581EA81FB81848D482F50E02C818C
:102D20003D81CB01B9010E94E92DEA81FB8124811B
:102D30003581EA81FB81848D882F90E0820F931F7B
:102D4000EA81FB8195838483EA81FB81248135813B
:102D5000EA81FB81828193812817390708F456C0E4
:102D6000EA81FB8180819181EA81FB819583848363
:102D70004DC0EA81FB8166817781EA81FB81848D88
:102D8000482F50E02C813D81CB01B9010E94E92DF3
:102D9000EA81FB8126813781EA81FB81848D882F3E
:102DA00090E0909581959F4F820F931FEA81FB8160
:102DB00097838683EA81FB8126813781EA81FB81C3
:102DC000808191812817390790F4EA81FB81228163
:102DD0003381EA81FB81848D882F90E090958195E5
:102DE0009F4F820F931FEA81FB81978386838E8199
:102DF000823061F4EA81FB81828D882339F0EA8197
:102E0000FB81828D8150EA81FB81828FEA81FB8187
:102E1000828D8F5FEA81FB81828F898126960FB632
:102E2000F894DEBF0FBECDBFCF91DF910895DF9341
:102E3000CF9300D000D0CDB7DEB79A8389837C834F
:102E40006B83E981FA81848D882389F1E981FA8194
:102E500026813781E981FA81848D882F90E0820F65
:102E6000931FE981FA8197838683E981FA8126811C
:102E70003781E981FA81828193812817390740F0EF
:102E8000E981FA8180819181E981FA819783868342
:102E9000E981FA8146815781E981FA81848D282F61
:102EA00030E08B819C81BA01A9010E94E92D0F902D
:102EB0000F900F900F90CF91DF910895DF93CF93F4
:102EC00000D0CDB7DEB79A8389830FB6F8940F92FE
:102ED00015C0E981FA8181898823A9F089819A81C5
:102EE00041960E948C1E882311F00E94D81FE98110
:102EF000FA81868D8150E981FA81868FE981FA8194
:102F0000868D181634F3E981FA818FEF868F0F9042
:102F10000FBE0FB6F8940F9215C0E981FA81808533
:102F20008823A9F089819A8108960E948C1E8823A3
:102F300011F00E94D81FE981FA81858D8150E981C5
:102F4000FA81858FE981FA81858D181634F3E9813C
:102F5000FA818FEF858F0F900FBE0F900F90CF915A
:102F6000DF910895DF93CF9300D00F92CDB7DEB7F6
:102F70009B838A830FB6F8940F92EA81FB81828D3E
:102F8000882319F481E0898301C019820F900FBE54
:102F900089810F900F900F90CF91DF910895DF936B
:102FA000CF9300D00F92CDB7DEB79B838A83EA819F
:102FB000FB81828D882319F481E0898301C0198205
:102FC00089810F900F900F90CF91DF910895DF933B
:102FD000CF9300D00F92CDB7DEB79B838A830FB615
:102FE000F8940F92EA81FB81928DEA81FB81838DB7
:102FF000981719F481E0898301C019820F900FBEE0
:1030000089810F900F900F90CF91DF910895DF93FA
:10301000CF9300D00F92CDB7DEB79B838A83EA812E
:10302000FB81928DEA81FB81838D981719F481E0F1
:10303000898301C0198289810F900F900F90CF91E1
:10304000DF910895DF93CF93CDB7DEB72A970FB600
:10305000F894DEBF0FBECDBF9D838C837F836E83CC
:10306000598748878C819D819A838983F8948981C7
:103070009A810E94E7178823A9F08885998500978F
:1030800071F089819A819C01285F3F4F88859985DD
:10309000B9010E943F0778948CEF8A872AC0789400
:1030A0001A8627C07894F894E981FA81928DE98193
:1030B000FA81838D9817C8F489819A812E813F8186
:1030C000B90140E00E945E1681E08B83E981FA81BC
:1030D0008189882359F089819A8141960E944B0900
:1030E000882321F08BEF8B8301C01B8278948B8126
:1030F0008A878A852A960FB6F894DEBF0FBECDBFA9
:10310000CF91DF910895DF93CF93CDB7DEB72A97A4
:103110000FB6F894DEBF0FBECDBF9D838C837F8337
:103120006E83598748878C819D819A838983F8941F
:10313000E981FA81828D8823A9F488859985009791
:1031400071F089819A819C012F5E3F4F8885998516
:10315000B9010E943F0778948CEF8A8758C0789411
:103160001A8655C07894F894E981FA81828D882373
:1031700009F449C0E981FA8126813781E981FA8120
:10318000848D882F90E0820F931FE981FA819783C5
:103190008683E981FA8126813781E981FA818281FA
:1031A00093812817390740F0E981FA818081918164
:1031B000E981FA8197838683E981FA81828D815042
:1031C000E981FA81828FE981FA8146815781E9811B
:1031D000FA81848D282F30E08E819F81BA01A90168
:1031E0000E94E92D81E08B83E981FA818085882323
:1031F00059F089819A8108960E944B09882321F011
:103200008BEF8B8301C01B8278948B818A878A85A0
:103210002A960FB6F894DEBF0FBECDBFCF91DF91D7
:103220000895DF93CF93CDB7DEB728970FB6F89404
:10323000DEBF0FBECDBF9C838B837E836D834F83A8
:103240008B819C819A838983E981FA81928DE981BE
:10325000FA81838D9817D0F489819A812D813E81DE
:10326000B90140E00E945E168F81882379F4E981DC
:10327000FA818189882351F089819A8141960E943F
:103280004B09882319F081E0888702C08F818887E5
:10329000888528960FB6F894DEBF0FBECDBFCF91BC
:1032A000DF910895DF93CF93CDB7DEB729970FB69F
:1032B000F894DEBF0FBECDBF9D838C837F836E836A
:1032C000598748878C819D819A838983E981FA8116
:1032D000828D882309F450C0E981FA8126813781E3
:1032E000E981FA81848D882F90E0820F931FE98114
:1032F000FA8197838683E981FA8126813781E98182
:10330000FA81828193812817390740F0E981FA8197
:1033100080819181E981FA8197838683E981FA81AD
:10332000828D8150E981FA81828FE981FA8146811B
:103330005781E981FA81848D282F30E08E819F8129
:10334000BA01A9010E94E92DE885F98580818823C9
:1033500081F4E981FA818085882359F089819A81F5
:1033600008960E944B09882321F0E885F98581E0C1
:10337000808381E08B8301C01B828B8129960FB6ED
:10338000F894DEBF0FBECDBFCF91DF910895AF920D
:10339000BF92CF92DF92EF92FF920F931F93DF9332
:1033A000CF93CDB7DEB764970FB6F894DEBF0FBEEC
:1033B000CDBF9F838E83798768875B874A873D87E8
:1033C0002C870E87F88AEF86DA8AC98ABC8AAB8A8C
:1033D0008A859B8529893A89B9010E9431219C837C
:1033E0008B838B819C81009709F48DC0EB81FC81DC
:1033F0002789308D8A859B850197820F931F9A8339
:1034000089838B819C8128853985EB89FC89AA85F4
:10341000BB85B9014E859F018D010E94F21F8981F4
:103420009A812E813F814C855D85B9010E94470FAD
:10343000EB81FC81918380838F859889009731F09F
:10344000EF85F8898B819C81918380830FB6F894F6
:103450000F928091BE0B8F5F8093BE0B8091BB0B50
:103460009091BC0B009769F48B819C819093BC0B6D
:103470008093BB0B8091BE0B8130A9F40E946C201D
:1034800012C08091C20B882371F4E091BB0BF091C4
:10349000BC0B96898E85891730F08B819C81909327
:1034A000BC0B8093BB0B8091C60B8F5F8093C60BC8
:1034B000EB81FC8196898091C10B891728F4EB81FF
:1034C000FC8186898093C10BEB81FC818689282F42
:1034D00030E0C901880F991F880F991F880F991F25
:1034E000820F931FAC014853544F8B819C819C01E8
:1034F0002E5F3F4FCA01B9010E944B0E81E08D83C0
:103500000F900FBE02C08FEF8D838D81813071F4DB
:103510008091C20B882351F0E091BB0BF091BC0B62
:1035200096898E85981710F40E9406118D816496F5
:103530000FB6F894DEBF0FBECDBFCF91DF911F91C4
:103540000F91FF90EF90DF90CF90BF90AF900895D4
:10355000DF93CF9300D000D000D0CDB7DEB79C83EF
:103560008B830FB6F8940F928B819C81009739F46E
:103570008091BB0B9091BC0B9E838D8304C08B818B
:103580009C819E838D838D819E819A83898389818D
:103590009A8102960E94FB0EE981FA8184899589BD
:1035A000009729F089819A810C960E94FB0E8981EF
:1035B0009A819C012E5F3F4F8DE19CE0B9010E94F2
:1035C0004B0E8091BD0B8F5F8093BD0B8091C60B1E
:1035D0008F5F8093C60B0F900FBE8091C20B882324
:1035E00099F02091BB0B3091BC0B89819A81821795
:1035F000930719F40E94061107C00FB6F8940F92B2
:103600000E948B210F900FBE26960FB6F894DEBF56
:103610000FBECDBFCF91DF910895DF93CF93CDB78C
:10362000DEB72A970FB6F894DEBF0FBECDBF9887DE
:103630008F837A8769871B820E94F91B8091BF0B59
:103640009091C00B9A838983EF81F8852081318125
:1036500089859A85820F931F9E838D83EF81F885DC
:103660002081318189819A818217930798F4EF81B3
:10367000F885208131818D819E8182179307E0F446
:103680002D813E8189819A8182179307A8F481E078
:103690008B8312C0EF81F885208131818D819E81DD
:1036A0008217930738F02D813E8189819A81821794
:1036B000930710F481E08B83EF81F8858D819E81E3
:1036C000918380838B81882359F08091BB0B9091EB
:1036D000BC0B02960E94FB0E8D819E810E94E82009
:1036E0000E94051C8C838C81882311F40E94061192
:1036F0002A960FB6F894DEBF0FBECDBFCF91DF91F3
:103700000895DF93CF9300D000D00F92CDB7DEB7EE
:103710009D838C8319828C819D810097D1F00E94BA
:10372000F91B2091BF0B3091C00B8C819D81820FC2
:10373000931F9B838A838091BB0B9091BC0B029655
:103740000E94FB0E8A819B810E94E8200E94051C3A
:1037500089838981882311F40E9406110F900F90AC
:103760000F900F900F90CF91DF910895AF92BF927D
:10377000CF92DF92EF92FF920F93DF93CF930F924E
:10378000CDB7DEB782EE9FE128E131E0B90145E532
:1037900050E020E030E000E0EE24FF24CC24DD24E3
:1037A000AA24BB240E94C71989838981813051F4DE
:1037B000F89481E08093C20B1092C00B1092BF0B63
:1037C0000E94CA100F90CF91DF910F91FF90EF9060
:1037D000DF90CF90BF90AF900895DF93CF93CDB798
:1037E000DEB7F8941092C20B0E94FF10CF91DF91C8
:1037F0000895DF93CF93CDB7DEB78091C70B8F5F6E
:103800008093C70BCF91DF910895DF93CF9300D0C2
:103810000F92CDB7DEB719820FB6F8940F92809150
:10382000C70B81508093C70B8091C70B882309F089
:103830006DC08091BE0B882309F468C045C0E0913B
:10384000190CF0911A0C868197819B838A838A8157
:103850009B810C960E94FB0E8A819B8102960E949E
:10386000FB0EEA81FB8196898091C10B891728F4B0
:10387000EA81FB8186898093C10BEA81FB8186897D
:10388000282F30E0C901880F991F880F991F880FD2
:10389000991F820F931FAC014853544F8A819B811B
:1038A0009C012E5F3F4FCA01B9010E944B0EEA8175
:1038B000FB819689E091BB0BF091BC0B8689981730
:1038C00018F081E08093C40B8091140C882309F0D8
:1038D000B6CF8091C30B882389F00CC00E94C41C12
:1038E000882319F081E08093C40B8091C30B815031
:1038F0008093C30B8091C30B882381F78091C40B05
:10390000813021F481E089830E9406110F900FBE5F
:1039100089810F900F900F90CF91DF910895DF93E1
:10392000CF9300D0CDB7DEB70FB6F8940F92809149
:10393000BF0B9091C00B9A8389830F900FBE898132
:103940009A810F900F90CF91DF910895DF93CF93DD
:1039500000D00F92CDB7DEB719828091BF0B909146
:10396000C00B9B838A838A819B810F900F900F905D
:10397000CF91DF910895DF93CF93CDB7DEB78091DC
:10398000BE0BCF91DF910895DF93CF93CDB7DEB714
:1039900029970FB6F894DEBF0FBECDBF1D82809170
:1039A000C70B882309F0C2C08091BF0B9091C00B58
:1039B00001969093C00B8093BF0B8091BF0B9091A9
:1039C000C00B9C838B838B819C810097D9F4809161
:1039D000100C9091110C9A8389838091120C909114
:1039E000130C9093110C8093100C89819A81909301
:1039F000130C8093120C8091C50B8F5F8093C50BC5
:103A00000E948B212091AB013091AC018B819C8174
:103A10008217930708F471C0E091100CF091110C1B
:103A20008081882339F48FEF9FEF9093AC018093CE
:103A3000AB0163C0E091100CF091110C0580F68190
:103A4000E02D8681978199878887E885F98582812D
:103A500093819F838E832B813C818E819F81281748
:103A6000390738F48E819F819093AC018093AB012C
:103A700044C08885998502960E94FB0EE885F985E9
:103A800084899589009729F0888599850C960E94EC
:103A9000FB0EE885F98596898091C10B891728F47A
:103AA000E885F98586898093C10BE885F985868943
:103AB000282F30E0C901880F991F880F991F880FA0
:103AC000991F820F931FAC014853544F88859985E5
:103AD0009C012E5F3F4FCA01B9010E944B0EE88541
:103AE000F9859689E091BB0BF091BC0B86899817FC
:103AF00008F492CF81E08D838FCFE091BB0BF091E2
:103B0000BC0B8689282F30E0C901880F991F880FC8
:103B1000991F880F991F820F931FFC01E853F44FE0
:103B20008081823040F081E08D8305C08091C30B9D
:103B30008F5F8093C30B8091C40B882311F081E0C9
:103B40008D838D8129960FB6F894DEBF0FBECDBF51
:103B5000CF91DF910895DF93CF9300D0CDB7DEB73B
:103B60008091C70B882321F081E08093C40B57C05C
:103B70001092C40B05C08091C10B81508093C10B82
:103B80008091C10B282F30E0C901880F991F880F41
:103B9000991F880F991F820F931FFC01E853F44F60
:103BA0008081882341F38091C10B282F30E0C90127
:103BB000880F991F880F991F880F991F820F931FD5
:103BC0008853944F9A838983E981FA810180F28135
:103BD000E02D82819381E981FA8192838183E98159
:103BE000FA812181328189819A81039628173907C8
:103BF00059F4E981FA810180F281E02D828193817B
:103C0000E981FA8192838183E981FA810180F281DD
:103C1000E02D868197819093BC0B8093BB0B0F9016
:103C20000F90CF91DF910895DF93CF9300D000D014
:103C300000D0CDB7DEB79C838B837E836D8380916C
:103C4000BB0B9091BC0B9C01245F3F4F8B819C81EF
:103C5000B9010E948F0E8091BB0B9091BC0B029614
:103C60000E94FB0E2091BF0B3091C00B8D819E8175
:103C7000820F931F9A83898389819A810E94E82009
:103C800026960FB6F894DEBF0FBECDBFCF91DF9161
:103C90000895DF93CF93CDB7DEB728970FB6F8948A
:103CA000DEBF0FBECDBF9C838B837E836D83588721
:103CB0004F83E091BB0BF091BC0B8D819E8190688E
:103CC000958784878091BB0B9091BC0B9C01245FEE
:103CD0003F4F8B819C81B9010E944B0E8091BB0BA1
:103CE0009091BC0B02960E94FB0E2091BF0B30916D
:103CF000C00B8F819885820F931F9A838983898156
:103D00009A810E94E82028960FB6F894DEBF0FBE75
:103D1000CDBFCF91DF910895DF93CF9300D000D036
:103D20000F92CDB7DEB79D838C83EC81FD8105803A
:103D3000F681E02D868197819B838A838A819B818E
:103D40000C960E94FB0E8091C70B882361F58A8137
:103D50009B8102960E94FB0EEA81FB8196898091ED
:103D6000C10B891728F4EA81FB8186898093C10BF6
:103D7000EA81FB818689282F30E0C901880F991FCD
:103D8000880F991F880F991F820F931FAC0148530A
:103D9000544F8A819B819C012E5F3F4FCA01B9011C
:103DA0000E944B0E0AC08A819B819C01245F3F4F79
:103DB00084E19CE0B9010E944B0EEA81FB81968967
:103DC000E091BB0BF091BC0B8689891730F481E040
:103DD000898381E08093C40B01C0198289810F908F
:103DE0000F900F900F900F90CF91DF910895DF9378
:103DF000CF93CDB7DEB727970FB6F894DEBF0FBECF
:103E0000CDBF9D838C837F836E838E819F819068DD
:103E1000EC81FD8191838083EC81FD818681978196
:103E20009B838A838C819D810E94FB0E8A819B816A
:103E300002960E94FB0EEA81FB8196898091C10B5C
:103E4000891728F4EA81FB8186898093C10BEA8176
:103E5000FB818689282F30E0C901880F991F880FC0
:103E6000991F880F991F820F931FAC014853544F1D
:103E70008A819B819C012E5F3F4FCA01B9010E943C
:103E80004B0EEA81FB819689E091BB0BF091BC0B54
:103E90008689891730F481E0898381E08093C40B9F
:103EA00001C01982898127960FB6F894DEBF0FBE34
:103EB000CDBFCF91DF910895DF93CF9300D0CDB7E1
:103EC000DEB79A8389838091C50BE981FA8180836B
:103ED0008091BF0B9091C00BE981FA81928381831D
:103EE0000F900F90CF91DF910895DF93CF93CDB7CF
:103EF000DEB727970FB6F894DEBF0FBECDBF9D8308
:103F00008C837F836E830FB6F8940F928091BF0BE2
:103F10009091C00B9A838983EC81FD81908180917F
:103F2000C50B981761F0EC81FD8121813281898177
:103F30009A818217930718F081E08B832DC0EC8162
:103F4000FD812181328189819A81AC01421B530B11
:103F50009A01EE81FF818081918128173907D0F481
:103F6000EE81FF8140815181EC81FD81218132818F
:103F700089819A81B901681B790BCB01840F951F48
:103F8000EE81FF81918380838C819D810E945C1FE3
:103F90001B8202C081E08B830F900FBE8B8127961E
:103FA0000FB6F894DEBF0FBECDBFCF91DF9108955D
:103FB000DF93CF93CDB7DEB781E08093C40BCF9171
:103FC000DF910895DF93CF9300D0CDB7DEB79A830A
:103FD00089830E94A9208091C80B8230D0F30E946F
:103FE0000611F7CF0F931F93DF93CF93CDB7DEB7B3
:103FF0002A970FB6F894DEBF0FBECDBF9B838A838E
:104000007D836C834E8338872F831A8709871982B3
:1040100021C08981482F50E08981282F30E08C8190
:104020009D81FC01E20FF31F20818A819B81840F17
:10403000951FFC01799620838981282F30E08C819F
:104040009D81FC01E20FF31F8081882331F089817B
:104050008F5F898389818431E0F2EA81FB8114A634
:104060008E81863010F085E08E83EA81FB818E811F
:10407000868BEA81FB818E8185A7EA81FB8116A66A
:104080008A819B8102960E943B0E8A819B810C96BD
:104090000E943B0EEA81FB818A819B819187808708
:1040A0008E81282F30E086E090E0821B930BEA811E
:1040B000FB8195878487EA81FB818A819B81938B31
:1040C000828B2A960FB6F894DEBF0FBECDBFCF917C
:1040D000DF911F910F910895DF93CF930F92CDB78A
:1040E000DEB7198213C08981282F30E0C901880FFB
:1040F000991F880F991F880F991F820F931F88534C
:10410000944F0E94110E89818F5F89838981863047
:1041100050F38EEF9BE00E94110E87E09CE00E941E
:10412000110E84E19CE00E94110E8DE19CE00E9442
:10413000110E8EEF9BE09093110C8093100C87E092
:104140009CE09093130C8093120C0F90CF91DF9111
:104150000895DF93CF9300D00F92CDB7DEB72EC076
:104160000E94F91B80911D0C1B82882311F481E0B1
:104170008B830E94051C8B81882301F50FB6F89470
:104180000F92E091220CF091230C868197819A8303
:10419000898389819A8102960E94FB0E8091BE0BD1
:1041A00081508093BE0B8091BD0B81508093BD0BDD
:1041B0000F900FBE89819A810E9475218091BD0B5D
:1041C000882371F60F900F900F90CF91DF91089593
:1041D000DF93CF9300D0CDB7DEB79A838983E09188
:1041E000BB0BF091BC0B89819A81938382832091D0
:1041F000BF0B3091C00B89819A818217930770F4AD
:104200008091120C9091130C2091BB0B3091BC0B40
:104210002E5F3F4FB9010E948F0E1EC04091100CBF
:104220005091110C8091BB0B9091BC0B9C012E5FA7
:104230003F4FCA01B9010E948F0E2091AB0130910E
:10424000AC0189819A818217930730F489819A8120
:104250009093AC018093AB010F900F90CF91DF91C1
:104260000895DF93CF93CDB7DEB728970FB6F894B4
:10427000DEBF0FBECDBF9C838B837E836D838FE2B9
:1042800090E00E94C30C9A83898389819A81009768
:1042900009F18D819E81009739F48B819C810E9468
:1042A000C30C98878F8304C08D819E8198878F83EC
:1042B000E981FA818F819885908F878BE981FA81D6
:1042C0008789908D009731F489819A810E94190D18
:1042D0001A82198289819A8128960FB6F894DEBFD6
:1042E0000FBECDBFCF91DF910895DF93CF9300D064
:1042F000CDB7DEB79A838983E981FA818789908D6A
:104300000E94190D89819A810E94190D0F900F90BA
:10431000CF91DF910895DF93CF9300D0CDB7DEB773
:10432000E091100CF091110C8081882339F48FEF0B
:104330009FEF9093AC018093AB0113C0E091100C00
:10434000F091110C0580F681E02D868197819A838A
:104350008983E981FA81828193819093AC01809372
:10436000AB010F900F90CF91DF910895DF93CF9322
:1043700000D0CDB7DEB78091BB0B9091BC0B9A8378
:10438000898389819A810F900F90CF91DF91089551
:10439000DF93CF9300D000D0CDB7DEB79C838B8363
:1043A0008B819C819A8389838B819C81009709F4FE
:1043B00073C0E981FA819689E091BB0BF091BC0B47
:1043C0008689981708F068C0E981FA818485958507
:1043D00099237CF0E091BB0BF091BC0B8689282FD0
:1043E00030E086E090E0821B930BE981FA819587AB
:1043F0008487E981FA8142855385E981FA8186893A
:10440000282F30E0C901880F991F880F991F880F46
:10441000991F820F931F8853944F48175907A1F58E
:1044200089819A8102960E94FB0EE091BB0BF0916C
:10443000BC0B8689E981FA81868BE981FA819689AC
:104440008091C10B891728F4E981FA8186898093CC
:10445000C10BE981FA818689282F30E0C901880FD4
:10446000991F880F991F880F991F820F931FAC0106
:104470004853544F89819A819C012E5F3F4FCA0156
:10448000B9010E944B0E08C0E091BB0BF091BC0B30
:104490008689E981FA81868B0F900F900F900F909B
:1044A000CF91DF910895DF93CF9300D000D00F928A
:1044B000CDB7DEB79D838C838C819D819B838A835E
:1044C00019828C819D81009709F456C0EA81FB8195
:1044D00086A58150EA81FB8186A7EA81FB819689C6
:1044E000EA81FB8185A5981709F446C0EA81FB8122
:1044F00086A5882309F040C08A819B8102960E948C
:10450000FB0EEA81FB8185A5EA81FB81868BEA812E
:10451000FB818689282F30E086E090E0821B930B98
:10452000EA81FB8195878487EA81FB819689809166
:10453000C10B891728F4EA81FB8186898093C10B1E
:10454000EA81FB818689282F30E0C901880F991FF5
:10455000880F991F880F991F820F931FAC01485332
:10456000544F8A819B819C012E5F3F4FCA01B90144
:104570000E944B0E81E0898389810F900F900F90EC
:104580000F900F90CF91DF910895DF93CF9300D0DC
:10459000CDB7DEB7E091BB0BF091BC0B8485958560
:1045A0009A838983A091BB0BB091BC0BE091BB0BAC
:1045B000F091BC0B8689282F30E086E090E0821BCA
:1045C000930B1D969C938E931C9789819A810F90D3
:1045D0000F90CF91DF910895DF93CF93CDB7DEB7E2
:1045E0008091BB0B9091BC0B009739F0E091BB0B15
:1045F000F091BC0B86A58F5F86A78091BB0B909135
:10460000BC0BCF91DF910895DF93CF93CDB7DEB789
:1046100027970FB6F894DEBF0FBECDBF89836A839C
:104620004B838B81813009F06FC08981282F30E066
:104630003F832E838E819F818130910549F12E81A8
:104640003F81223031052CF48E819F81009761F0EB
:10465000D2C02E813F812230310571F18E819F8140
:1046600083309105E9F1C7C0AAE3B0E0EAE3F0E0E6
:104670008081482F8A81282F30E081E090E0022E4F
:1046800002C0880F991F0A94E2F7842B8C93B3C061
:10469000A7E3B0E0E7E3F0E08081482F8A81282F8C
:1046A00030E081E090E0022E02C0880F991F0A944A
:1046B000E2F7842B8C939FC0A4E3B0E0E4E3F0E046
:1046C0008081482F8A81282F30E081E090E0022EFF
:1046D00002C0880F991F0A94E2F7842B8C938BC039
:1046E000A1E3B0E0E1E3F0E08081482F8A81282F48
:1046F00030E081E090E0022E02C0880F991F0A94FA
:10470000E2F7842B8C9377C08B81882309F073C0E8
:104710008981282F30E03D832C838C819D818130DD
:10472000910559F12C813D81223031052CF48C8189
:104730009D81009769F05FC02C813D812230310559
:1047400089F18C819D818330910509F440C053C06B
:10475000AAE3B0E0EAE3F0E08081482F8A81282FC5
:1047600030E081E090E0022E02C0880F991F0A9489
:10477000E2F7809584238C933EC0A7E3B0E0E7E3A3
:10478000F0E08081482F8A81282F30E081E090E09E
:10479000022E02C0880F991F0A94E2F780958423A5
:1047A0008C9329C0A4E3B0E0E4E3F0E08081482FDB
:1047B0008A81282F30E081E090E0022E02C0880F2D
:1047C000991F0A94E2F7809584238C9314C0A1E387
:1047D000B0E0E1E3F0E08081482F8A81282F30E0CB
:1047E00081E090E0022E02C0880F991F0A94E2F740
:1047F000809584238C9327960FB6F894DEBF0FBE66
:10480000CDBFCF91DF910895DF93CF93CDB7DEB7C2
:1048100027970FB6F894DEBF0FBECDBF89836A839A
:104820004B838B81813009F06FC08981282F30E064
:104830003F832E838E819F818130910549F12E81A6
:104840003F81223031052CF48E819F81009761F0E9
:10485000D2C02E813F812230310571F18E819F813E
:1048600083309105E9F1C7C0ABE3B0E0EBE3F0E0E2
:104870008081482F8A81282F30E081E090E0022E4D
:1048800002C0880F991F0A94E2F7842B8C93B3C05F
:10489000A8E3B0E0E8E3F0E08081482F8A81282F88
:1048A00030E081E090E0022E02C0880F991F0A9448
:1048B000E2F7842B8C939FC0A5E3B0E0E5E3F0E042
:1048C0008081482F8A81282F30E081E090E0022EFD
:1048D00002C0880F991F0A94E2F7842B8C938BC037
:1048E000A2E3B0E0E2E3F0E08081482F8A81282F44
:1048F00030E081E090E0022E02C0880F991F0A94F8
:10490000E2F7842B8C9377C08B81882309F073C0E6
:104910008981282F30E03D832C838C819D818130DB
:10492000910559F12C813D81223031052CF48C8187
:104930009D81009769F05FC02C813D812230310557
:1049400089F18C819D818330910509F440C053C069
:10495000ABE3B0E0EBE3F0E08081482F8A81282FC1
:1049600030E081E090E0022E02C0880F991F0A9487
:10497000E2F7809584238C933EC0A8E3B0E0E8E39F
:10498000F0E08081482F8A81282F30E081E090E09C
:10499000022E02C0880F991F0A94E2F780958423A3
:1049A0008C9329C0A5E3B0E0E5E3F0E08081482FD7
:1049B0008A81282F30E081E090E0022E02C0880F2B
:1049C000991F0A94E2F7809584238C9314C0A2E384
:1049D000B0E0E2E3F0E08081482F8A81282F30E0C8
:1049E00081E090E0022E02C0880F991F0A94E2F73E
:1049F000809584238C9327960FB6F894DEBF0FBE64
:104A0000CDBFCF91DF910895DF93CF9300D000D039
:104A1000CDB7DEB789836A838981282F30E03C8354
:104A20002B838B819C8181309105D1F02B813C813E
:104A3000223031052CF48B819C81009761F01EC0DF
:104A40002B813C812230310581F08B819C81833028
:104A5000910581F013C0EAE3F0E08A8180830EC003
:104A6000E7E3F0E08A81808309C0E4E3F0E08A8133
:104A7000808304C0E1E3F0E08A8180830F900F908F
:104A80000F900F90CF91DF910895DF93CF9300D0D7
:104A900000D0CDB7DEB789836A838981282F30E0C3
:104AA0003C832B838B819C8181309105D1F02B81BC
:104AB0003C81223031052CF48B819C81009761F080
:104AC0001EC02B813C812230310581F08B819C817D
:104AD0008330910581F013C0EBE3F0E08A8180839D
:104AE0000EC0E8E3F0E08A81808309C0E5E3F0E0EE
:104AF0008A81808304C0E2E3F0E08A8180830F90A2
:104B00000F900F900F90CF91DF910895DF93CF9387
:104B100000D000D00F92CDB7DEB78A836B838A8135
:104B2000282F30E03D832C834C815D81413051053D
:104B300041F18C819D818230910534F42C813D813D
:104B40002115310561F052C04C815D814230510523
:104B500051F18C819D8183309105B9F147C0E9E322
:104B6000F0E08081282F30E08B81882F90E0A90130
:104B700002C0559547958A95E2F7CA0181708983ED
:104B800035C0E6E3F0E08081282F30E08B81882F6C
:104B900090E0A90102C0559547958A95E2F7CA01B0
:104BA0008170898323C0E3E3F0E08081282F30E027
:104BB0008B81882F90E0A90102C0559547958A9571
:104BC000E2F7CA018170898311C0E0E3F0E08081DF
:104BD000282F30E08B81882F90E0A90102C05595E5
:104BE00047958A95E2F7CA018170898389810F9080
:104BF0000F900F900F900F90CF91DF910895DF935A
:104C0000CF9300D000D0CDB7DEB789836A83898186
:104C1000282F30E03C832B838B819C818130910550
:104C200049F12B813C81223031052CF48B819C8110
:104C3000009761F05AC02B813C812230310571F11F
:104C40008B819C8183309105E9F14FC0ABE3B0E0EB
:104C5000EBE3F0E08081482F8A81282F30E081E06B
:104C600090E0022E02C0880F991F0A94E2F7842771
:104C70008C933BC0A8E3B0E0E8E3F0E08081482FEC
:104C80008A81282F30E081E090E0022E02C0880F58
:104C9000991F0A94E2F784278C9327C0A5E3B0E01C
:104CA000E5E3F0E08081482F8A81282F30E081E021
:104CB00090E0022E02C0880F991F0A94E2F7842721
:104CC0008C9313C0A2E3B0E0E2E3F0E08081482FD0
:104CD0008A81282F30E081E090E0022E02C0880F08
:104CE000991F0A94E2F784278C930F900F900F90EE
:104CF0000F90CF91DF910895DF93CF93CDB7DEB7BB
:104D0000E4E3F0E08FEF8083A7E3B0E0E7E3F0E0D7
:104D1000808180678C9388E30E9497268CE00E94B4
:104D2000972681E00E949726CF91DF910895DF9327
:104D3000CF93CDB7DEB7E9970FB6F894DEBF0FBEBD
:104D4000CDBF89AFA8E3B0E0E8E3F0E080818F7EDB
:104D50008C93A8E3B0E0E8E3F0E080818F7D8C9352
:104D600080E090E0A0E8BFE38DAB9EABAFABB8AF07
:104D70006DA97EA98FA998AD20E030E04AEF54E4F8
:104D80000E943D02DC01CB0189AB9AABABABBCAB63
:104D900069A97AA98BA99CA920E030E040E85FE3EB
:104DA0000E94970388232CF481E090E098AB8FA7B2
:104DB0003FC069A97AA98BA99CA920E03FEF4FE7E2
:104DC00057E40E94370318164CF56DA97EA98FA9E8
:104DD00098AD20E030E040E251E40E943D02DC0169
:104DE000CB01BC01CD010E946700DC01CB0198AB77
:104DF0008FA70FC088EC90E09EA78DA78DA59EA5DC
:104E00000197F1F79EA78DA78FA598A9019798AB59
:104E10008FA78FA598A9009769F714C069A97AA9E7
:104E20008BA99CA90E946700DC01CB0198AB8FA7DE
:104E30008FA598A99CA78BA78BA59CA50197F1F797
:104E40009CA78BA7A8E3B0E0E8E3F0E08081806452
:104E50008C9380E090E0A0E8BFE38FA398A7A9A778
:104E6000BAA76FA178A589A59AA520E030E04AEFFE
:104E700054E40E943D02DC01CB018BA39CA3ADA3B3
:104E8000BEA36BA17CA18DA19EA120E030E040E8F3
:104E90005FE30E94970388232CF481E090E09AA3BB
:104EA00089A33FC06BA17CA18DA19EA120E03FEF13
:104EB0004FE757E40E94370318164CF56FA178A509
:104EC00089A59AA520E030E040E251E40E943D022D
:104ED000DC01CB01BC01CD010E946700DC01CB01EC
:104EE0009AA389A30FC088EC90E098A38F8F8F8D31
:104EF00098A10197F1F798A38F8F89A19AA10197A3
:104F00009AA389A389A19AA1009769F714C06BA1FC
:104F10007CA18DA19EA10E946700DC01CB019AA318
:104F200089A389A19AA19E8F8D8F8D8D9E8D0197CA
:104F3000F1F79E8F8D8FE5E3F0E089AD808380E00F
:104F400090E0A0E8BFE3898F9A8FAB8FBC8F698D0B
:104F50007A8D8B8D9C8D20E030E04AEF54E40E94E6
:104F60003D02DC01CB018D8B9E8BAF8BB88F6D89A1
:104F70007E898F89988D20E030E040E85FE30E94D1
:104F8000970388232CF481E090E09C8B8B8B3FC0AF
:104F90006D897E898F89988D20E03FEF4FE757E438
:104FA0000E94370318164CF5698D7A8D8B8D9C8D78
:104FB00020E030E040E251E40E943D02DC01CB0100
:104FC000BC01CD010E946700DC01CB019C8B8B8B67
:104FD0000FC088EC90E09A8B898B89899A89019718
:104FE000F1F79A8B898B8B899C8901979C8B8B8B92
:104FF0008B899C89009769F714C06D897E898F8998
:10500000988D0E946700DC01CB019C8B8B8B8B8978
:105010009C89988B8F878F8598890197F1F7988B5A
:105020008F87A8E3B0E0E8E3F0E080818F7B8C938A
:1050300080E090E0A0E8BFE38B879C87AD87BE87C8
:105040006B857C858D859E8520E030E04AEF54E4B9
:105050000E943D02DC01CB018F839887A987BA8724
:105060006F81788589859A8520E030E040E85FE3AC
:105070000E94970388232CF481E090E09E838D8327
:105080003FC06F81788589859A8520E03FEF4FE7A3
:1050900057E40E94370318164CF56B857C858D8587
:1050A0009E8520E030E040E251E40E943D02DC01B8
:1050B000CB01BC01CD010E946700DC01CB019E83C6
:1050C0008D830FC088EC90E09C838B838B819C81C7
:1050D0000197F1F79C838B838D819E8101979E833D
:1050E0008D838D819E81009769F714C06F817885CB
:1050F00089859A850E946700DC01CB019E838D83A0
:105100008D819E819A83898389819A810197F1F7A4
:105110009A838983E9960FB6F894DEBF0FBECDBFA0
:10512000CF91DF910895DF93CF93CDB7DEB7E997A5
:105130000FB6F894DEBF0FBECDBF89AFA8E3B0E0D5
:10514000E8E3F0E0808180618C93A8E3B0E0E8E3DD
:10515000F0E080818F7D8C9380E090E0A0E8BFE359
:105160008DAB9EABAFABB8AF6DA97EA98FA998AD43
:1051700020E030E04AEF54E40E943D02DC01CB0124
:1051800089AB9AABABABBCAB69A97AA98BA99CA93B
:1051900020E030E040E85FE30E94970388232CF48E
:1051A00081E090E098AB8FA73FC069A97AA98BA94D
:1051B0009CA920E03FEF4FE757E40E943703181601
:1051C0004CF56DA97EA98FA998AD20E030E040E2B2
:1051D00051E40E943D02DC01CB01BC01CD010E94E3
:1051E0006700DC01CB0198AB8FA70FC088EC90E083
:1051F0009EA78DA78DA59EA50197F1F79EA78DA7C8
:105200008FA598A9019798AB8FA78FA598A900970C
:1052100069F714C069A97AA98BA99CA90E946700A3
:10522000DC01CB0198AB8FA78FA598A99CA78BA772
:105230008BA59CA50197F1F79CA78BA7A8E3B0E0ED
:10524000E8E3F0E0808180648C9380E090E0A0E867
:10525000BFE38FA398A7A9A7BAA76FA178A589A52F
:105260009AA520E030E04AEF54E40E943D02DC01C0
:10527000CB018BA39CA3ADA3BEA36BA17CA18DA1ED
:105280009EA120E030E040E85FE30E94970388237E
:105290002CF481E090E09AA389A33FC06BA17CA18C
:1052A0008DA19EA120E03FEF4FE757E40E94370316
:1052B00018164CF56FA178A589A59AA520E030E0D5
:1052C00040E251E40E943D02DC01CB01BC01CD0172
:1052D0000E946700DC01CB019AA389A30FC088EC70
:1052E00090E098A38F8F8F8D98A10197F1F798A3E5
:1052F0008F8F89A19AA101979AA389A389A19AA1C5
:10530000009769F714C06BA17CA18DA19EA10E949A
:105310006700DC01CB019AA389A389A19AA19E8F82
:105320008D8F8D8D9E8D0197F1F79E8F8D8FE5E38B
:10533000F0E089AD808380E090E0A0E8BFE3898F52
:105340009A8FAB8FBC8F698D7A8D8B8D9C8D20E071
:1053500030E04AEF54E40E943D02DC01CB018D8B2A
:105360009E8BAF8BB88F6D897E898F89988D20E059
:1053700030E040E85FE30E94970388232CF481E04B
:1053800090E09C8B8B8B3FC06D897E898F89988D37
:1053900020E03FEF4FE757E40E94370318164CF523
:1053A000698D7A8D8B8D9C8D20E030E040E251E458
:1053B0000E943D02DC01CB01BC01CD010E946700CF
:1053C000DC01CB019C8B8B8B0FC088EC90E09A8B1F
:1053D000898B89899A890197F1F79A8B898B8B89B7
:1053E0009C8901979C8B8B8B8B899C89009769F793
:1053F00014C06D897E898F89988D0E946700DC01B9
:10540000CB019C8B8B8B8B899C89988B8F878F850D
:1054100098890197F1F7988B8F87A8E3B0E0E8E3CC
:10542000F0E080818F7B8C9380E090E0A0E8BFE388
:105430008B879C87AD87BE876B857C858D859E8598
:1054400020E030E04AEF54E40E943D02DC01CB0151
:105450008F839887A987BA876F81788589859A8590
:1054600020E030E040E85FE30E94970388232CF4BB
:1054700081E090E09E838D833FC06F817885898530
:105480009A8520E03FEF4FE757E40E943703181654
:105490004CF56B857C858D859E8520E030E040E273
:1054A00051E40E943D02DC01CB01BC01CD010E9410
:1054B0006700DC01CB019E838D830FC088EC90E0F8
:1054C0009C838B838B819C810197F1F79C838B83D9
:1054D0008D819E8101979E838D838D819E81009712
:1054E00069F714C06F81788589859A850E94670065
:1054F000DC01CB019E838D838D819E819A8389837C
:1055000089819A810197F1F79A838983E9960FB689
:10551000F894DEBF0FBECDBFCF91DF910895DF932A
:10552000CF9300D00F92CDB7DEB79B838A831982C9
:105530000EC08981282F30E08A819B81FC01E20F17
:10554000F31F80810E94932889818F5F89838981DD
:10555000282F30E08A819B81FC01E20FF31F8081BC
:10556000882339F70F900F900F90CF91DF91089516
:10557000DF93CF9300D000D00F92CDB7DEB78A83F0
:105580006B838A81282F30E03D832C838C819D8121
:1055900081309105C1F02C813D81223031052CF400
:1055A0008C819D81009761F019C02C813D81223052
:1055B000310569F08C819D818330910561F00EC0C9
:1055C0008B8189830BC08B81805C898307C08B8131
:1055D000805F898303C08B81805B89838981806838
:1055E0000E9497260F900F900F900F900F90CF91E1
:1055F000DF910895DF93CF9300D000D0CDB7DEB711
:1056000089836A835C834B8389816A810E94B82A7B
:105610008B819C810E948F2A0F900F900F900F908A
:10562000CF91DF910895DF93CF93CDB7DEB7629727
:105630000FB6F894DEBF0FBECDBF9A8B898B8989D8
:105640009A899E012F5F3F4FB9014AE050E00E94C6
:10565000F22DCE0101960E948F2A62960FB6F89421
:10566000DEBF0FBECDBFCF91DF910895DF93CF9303
:10567000CDB7DEB781E00E949726CF91DF910895E4
:10568000AF92BF92CF92DF92EF92FF920F93DF9390
:10569000CF93CDB7DEB70E94622C81E060E043E09B
:1056A0000E94A1129093290C8093280C0E948309D8
:1056B0009093270C8093260C0E94830990932F0CC3
:1056C00080932E0C85EC9BE260E070E048EC50E0AB
:1056D00020E030E002E0EE24FF24CC24DD24AA24E4
:1056E000BB240E94C71985ED9BE260E070E048ECA6
:1056F00050E020E030E005E0EE24FF24CC24DD245F
:10570000AA24BB240E94C71983E29CE260E070E0F7
:1057100048EC50E020E030E004E0EE24FF24CC240C
:10572000DD24AA24BB240E94C7198AE39CE260E01E
:1057300070E04CE251E020E030E003E0EE24FF2492
:10574000CC24DD24AA24BB240E94C71986E59CE250
:1057500060E070E040E951E020E030E001E0EE245C
:10576000FF24CC24DD24AA24BB240E94C7190E9454
:10577000B61B80E090E0CF91DF910F91FF90EF900A
:10578000DF90CF90BF90AF900895DF93CF9300D07C
:10579000CDB7DEB79A8389838DE191E00E942B2DEE
:1057A00086E990E00E94811BFBCF0F931F93DF934C
:1057B000CF9300D0CDB7DEB79A83898386E391E09B
:1057C0000E942B2D80912E0C90912F0C61E070E0A7
:1057D00040E020E00FEF1FEF0E94590A90932B0C3E
:1057E00080932A0C80912A0C90912B0C81709070E0
:1057F000882341F38091260C9091270C68E070E09B
:105800000E94740B80E065E040E00E9404248091D7
:10581000B201882329F480E066E041E00E9404247C
:1058200084EF91E00E94811B80E065E041E00E94EE
:10583000042480E066E040E00E94042484EF91E0CC
:105840000E94811BBFCFDF93CF9300D0CDB7DEB7CF
:105850009A8389838BE491E00E942B2D8091280C00
:105860009091290C60E070E04FEF5FEF20E00E9424
:105870007A14F4CFDF93CF9300D00F92CDB7DEB779
:105880009B838A8380E691E00E942B2DCE010196B6
:105890000E94F72C882329F482E390E00E94811B68
:1058A000F5CF82E390E00E94811BF0CFDF93CF938E
:1058B00000D0CDB7DEB79A83898388E791E00E9454
:1058C0002B2DFFCFDF93CF93CDB7DEB780E060E025
:1058D00040E00E94042380E061E040E00E94042355
:1058E00080E062E040E00E94042380E063E040E06A
:1058F0000E94042380E064E040E00E94042380E0F2
:1059000065E041E00E94042380E066E041E00E94FF
:10591000042380E895E20E94962C0E947C268FE862
:1059200091E00E942B2DCF91DF910895DF93CF93CB
:1059300000D000D0CDB7DEB79C838B838B819C8158
:10594000CC01A0E0B0E0880F991FAA1FBB1F880FF1
:10595000991FAA1FBB1F880F991FAA1FBB1F880F63
:10596000991FAA1FBB1F9C01AD0180E092E1AAE72D
:10597000B0E0BC01CD010E94752DDA01C90101978B
:105980009A838983E9E2F0E089818083E0E9F0E0AD
:1059900089819A81892F99278083EAE2F0E088E162
:1059A0008083E5E9F0E086E08083EBE2F0E01082BE
:1059B0000F900F900F900F90CF91DF910895DF938C
:1059C000CF9300D0CDB7DEB79A838983EBE2F0E0C6
:1059D00080818823DCF7ECE2F0E08081E981FA81C4
:1059E000808381E00F900F90CF91DF910895DF9336
:1059F000CF9300D00F92CDB7DEB79B838A831982F5
:105A0000EBE2F0E08081882344F4ECE2F0E0808176
:105A1000EA81FB81808381E0898389810F900F90E7
:105A20000F90CF91DF910895DF93CF930F92CDB771
:105A3000DEB78983EBE2F0E08081882F90E080720E
:105A400090700097B9F3ECE2F0E0898180830F90C9
:105A5000CF91DF910895DF93CF9300D000D0CDB7E1
:105A6000DEB79C838B831A8219820FC029813A8109
:105A70008B819C81FC01E20FF31F80810E94142D19
:105A800089819A8101969A83898329813A818B81C0
:105A90009C81FC01E20FF31F8081882339F70F906E
:105AA0000F900F900F90CF91DF910895629FD001DA
:105AB000739FF001829FE00DF11D649FE00DF11DC9
:105AC000929FF00D839FF00D749FF00D659FF00D78
:105AD0009927729FB00DE11DF91F639FB00DE11D65
